:020000040800F2
:10000000F00F0020D50200085B49000813440008E7
:1000100059490008B1240008D1530008000000002D
:10002000000000000000000000000000734A00080B
:100030007D25000800000000714A0008894B000877
:10004000EF020008EF020008EF020008EF020008CC
:10005000EF020008EF020008EF020008EF020008BC
:10006000EF020008EF020008EF020008EF020008AC
:10007000EF020008B5240008EF020008EF020008B4
:10008000C1240008EF020008EF020008EF02000898
:10009000EF020008EF020008EF020008EF0200087C
:1000A000EF020008EF020008EF020008EF0200086C
:1000B000EF020008EF020008EF020008EF0200085C
:1000C000EF020008EF020008EF020008EF0200084C
:1000D000EF020008615300086D53000899530008AF
:1000E000EF020008EF020008EF020008EF0200082C
:1000F000EF020008EF020008EF020008EF0200081C
:10010000EF020008EF020008EF020008EF0200080B
:10011000ED4E0008EF020008EF020008EF020008B1
:10012000EF020008CD240008EF020008EF020008EB
:10013000EF020008EF020008EF020008EF020008DB
:10014000EF020008EF020008EF020008EF020008CB
:10015000EF020008EF020008EF020008A5530008B4
:10016000EF020008EF020008EF020008EF020008AB
:10017000EF020008EF020008EF0200080000000094
:10018000EF020008EF02000800F002F800F092F819
:100190000AA090E8000C82448344AAF10107DA45E2
:1001A00001D100F087F8AFF2090EBAE80F0013F0A2
:1001B000010F18BFFB1A43F001031847EC6300005E
:1001C0000C640000103A24BF78C878C1FAD85207EE
:1001D00024BF30C830C144BF04680C6070470000C1
:1001E0000023002400250026103A28BF78C1FBD840
:1001F000520728BF30C148BF0B6070476E2900F01E
:100200000F84702900F06F85662906F0F580652956
:1002100006F0F280672906F0EF80612906F0EE8093
:1002200003681B0A28BF41F08001692900F0BC83E4
:10023000642900F0B983752900F0B6836F2900F0B6
:10024000FC84782900F03B85E92900F09784E429B3
:1002500000F09484F52900F09184EF2900F0F984EE
:10026000F82900F03A850368DB0928BF41F08001D6
:10027000632900F01884732900F01D84E32901F03C
:10028000F981F32901F0FE81002070471FB506F0C7
:10029000AEF801F025FC04000020002106F01AF859
:1002A000401C60600020002105F0FEFFE0601FBDE3
:1002B00010B510BD01F0E6FB1146FFF7E7FF05F0B2
:1002C00007F901F0C3FC03B4FFF7F2FF03BC00F031
:1002D0002BFB00000948804709480047FEE7FEE77E
:1002E000FEE7FEE7FEE7FEE7FEE7FEE7FEE7FEE7E6
:1002F00004480549054A064B704700001D4C00089C
:1003000089010008F0090020F00F0020F00B002008
:10031000F00B002053EA020C00F069802DE9F04B4D
:100320004FF00006002B1FBFB3FA83F503FA05F464
:1003300024FA05F65E4012BF1643B2FA82F502FABD
:1003400005F4C5F120051EBF22FA05FC44EA0C04A1
:10035000203556EA044C4FEA144418BF641C4FF091
:1003600000084FF00009904271EB030C39D30029CB
:1003700019BFB1FA81F701FA07F6B0FA80F700FA6F
:1003800007F6C7F120071EBF20FA07FC46EA0C0655
:100390002037B6FBF4FCA7EB0507103F07F01F0B57
:1003A000CBF120060CFA0BFB2CFA06F644BFB34641
:1003B0000026202FA4BF5E464FF0000B5BEA060C20
:1003C00008BF4FF0010B19EB0B09ABFB027C48EBAC
:1003D0000608C01B06FB02CC0BFB03CC71EB0C0127
:1003E000C1E70B46024641464846BDE8F08B13B5CF
:1003F0004FF000004FF00001AFF30080BDE81C405B
:10040000704700007CB51D4616460C00009001D0D8
:100410002044401E074B7B442A46694601903046E3
:1004200000F017FB05461CB10020694600F024FBD4
:1004300028467CBD6906000070B50C460546012AB9
:1004400005D02878800600D5EA69002302E0012360
:1004500005E05B1C934202D2E05C0028F9D1A86958
:10046000E618C01AA861286A18442862284600F0D5
:1004700061FA04E0D5E9012114F8010B9047B44278
:10048000F8D3284600F06CFA70BD00002DE9F05F4B
:10049000894604464FF0000ADFF874B1FB44C0F807
:1004A00020A02046E1688847002874D0252806D07F
:1004B000D4E901219047206A401C2062F1E7002620
:1004C0005F462046E16888472028054607DB312D36
:1004D00005D2781910F8200C08B10643F1E7B007EF
:1004E00001D526F00406C4F81CA00027C4F818A003
:1004F0002A2D09D0284604F094FF38B304EB87086E
:10050000303DC8F8185019E059F8041B204604EB98
:1005100087029161E1688847012F054618D1E0699B
:10052000002820DA26F020061DE0D8F8180000EB9D
:10053000800005EB40003038C8F818002046E1681C
:100540008847054604F06DFF0028EED1012F0AD040
:100550002E2D08D12046E16888477F1C0546022FD2
:1005600046F02006C4DBA069002803DA404246F0CA
:100570000106A061F00701D026F010066C2D0BD00B
:10058000682D09D04C2D39D06A2D35D0742D35D039
:100590007A2D33D016E038E0E1682F4620468847B0
:1005A000B842054609D16C2F26D04FF48060E1682F
:1005B000064320468847054604E06C2F1AD04FF4C6
:1005C000807006430DB3A5F14100192802D82035EB
:1005D00046F400664A462946204626604E46FFF706
:1005E0000DFE80B101280BD0F61D26F0070000F1AA
:1005F000080956E74020E4E78020D8E70020D6E746
:1006000006F104094DE7284652E7206ABDE8F09F4D
:10061000805F00000FB400B58DB010A90990009163
:100620000B904FF0FF300A9000200C900648784461
:100630000690064878446A4607900F9909A800F08A
:1006400071FB0DB05DF814FB130700002B070000D1
:100650002DE9FF5F1D464FF0FF3B91464FF000082C
:100660005F46D5E90146A96901987F1C8847296A38
:10067000824688470028F6D1BAF1FF3F0CD0002E01
:1006800024F4C06419DD600614D5BAF12B0F09D02B
:10069000BAF12D0F0ED103E0584604B0BDE8F09F2B
:1006A00044F48064A96901987F1C8847761E8246BD
:1006B000002E02DDBAF1300F03D0B9F1000F26D0C1
:1006C00032E0A969761E01987F1C44F400748847C3
:1006D000002E824605DDBAF1780F06D0BAF1580F28
:1006E00003D0B9F1000F10D01EE0B9F1000F02D015
:1006F000B9F1100F18D1A969761E01987F1C24F456
:10070000007488478246102002E0082000E00A209A
:10071000814609E0A96908FB0908761E01987F1C3B
:1007200044F4007488478246002E05DD4946504651
:1007300000F0E4FA0028EDDAE96901988847A0059D
:1007400002D46FF00100A8E7E00725D1600613D5B9
:10075000600502D5C8F1000000E0404629680A1D86
:100760002A600968220501D5087015E0220701D525
:10077000088011E008600FE02868011D296000680A
:10078000210502D580F8008006E0210702D5A0F8F7
:10079000008001E0C0F8008038467EE710B50020F8
:1007A00000F0F0FAFFF784FDBDE81040012000F0F2
:1007B000BBB840EA010370B59B072ED14FF001365C
:1007C000042A2AD308C810C99D1B9D43121F15EA8D
:1007D000C61517D0D8B2E1B2401A50EA056110D15F
:1007E00098B2A1B2401A50EA05410AD123F07F40E5
:1007F00024F07F41401A50EA052102D1180EA0EBE7
:10080000146070BDA342DBD018BA21BA884201D966
:10081000012070BD4FF0FF3070BD0AB9002070BDDF
:1008200010F8013B11F8014B63B1A3420AD1521EEB
:1008300008D010F8013B11F8014B1BB1A34201D1C4
:10084000521EEDD1181B70BD032A40F2308010F00B
:10085000030C00F0158011F8013BBCF1020F62445B
:1008600098BF11F801CB00F8013B38BF11F8013BEC
:10087000A2F1040298BF00F801CB38BF00F8013B99
:1008800011F0030300F08582083AC0F0088051F8A7
:10089000043B083A51F804CBA0E80810F5E7121D14
:1008A0005CBF51F8043B40F8043BAFF30080D20733
:1008B00024BF11F8013B11F801CB48BF11F8012BFF
:1008C00024BF00F8013B00F801CB48BF00F8012B22
:1008D00070474FF0000200B5134694469646203903
:1008E00022BFA0E80C50A0E80C50B1F12001BFF4E9
:1008F000F7AF090728BFA0E80C5048BF0CC05DF84F
:1009000004EB890028BF40F8042B08BF704748BF9C
:1009100020F8022B11F0804F18BF00F8012B704710
:10092000704770477047000001491820ABBEFEE7D2
:100930002600020070B5044685690068C10601D52D
:10094000302600E02026C00707D070BDD4E9012181
:1009500030469047206A401C20626D1EF6D570BD5F
:1009600070B5044685690078C00707D170BDD4E929
:10097000012120209047206A401C20626D1EF6D580
:1009800070BD09684A0501D540B27047C905FCD55C
:1009900000B2704709684A0501D5C0B27047C90561
:1009A000FCD580B2704700002DE9F04106460024D6
:1009B00010687529314616A510D0FFF7E2FF002810
:1009C00002DA404213A507E031688A0701D512A573
:1009D00002E0490704D511A5012401E0FFF7DAFF81
:1009E00000210A2206F1240709E0B0FBF2FCB0FB6B
:1009F000F2F302FB1C00303078541846491C0028E2
:100A0000F3D123462A463046BDE8F04100F042BA11
:100A1000000000002D0000002B000000200000005E
:100A200011680268006A530501D508700AE0D30511
:100A300001D5088006E0130603D5C217C1E90002FC
:100A400000E008600120704701694A1C02610878D3
:100A5000704700B58FB0CDE90131002105910549FE
:100A60007944CDE9031011466846FFF70FFD0FB03A
:100A700000BD0000E5FFFFFF0A6802F8010B0A60F5
:100A80007047D1E900239A4202D2531C0B601070C8
:100A9000704710B5436913B1AFF3008001E0FFF771
:100AA000CBFC012010BD127800F124010A70002255
:100AB0004A700122EDE711684FF0FF32E9E70000CC
:100AC0002DE9FF5F15468A460446DFF8AC80F844FE
:100AD0000027D8E900103E46CDE9001010E03AF8B2
:100AE00016106A4602A800F08BFF411C07D021783F
:100AF000890603D5E269391891420DD80744761C5E
:100B00002078800602D5E069B84205DDAE42E6DB1A
:100B10003AF816000028E2D1A069C01BA061204667
:100B2000FFF708FFD8E90010CDE90010002017E01A
:100B30003AF818106A4602A800F062FFB0F1FF3FD1
:100B400081460BD000250DF1080B05E0D4E9012109
:100B50001BF8050090476D1C4D45F7D308F10100C7
:100B6000B0428046E4DB206A384420622046FFF72A
:100B7000F7FEBDE8FF9F0000625900002DE9F0413B
:100B80008046D21D22F007020025D2E90002F52995
:100B900015A614D0011E72F1000106DA0023D0EB75
:100BA000030063EB020211A608E0D8F800108B07DF
:100BB00001D50FA602E0490701D50EA60125114671
:100BC000002408F1240704E000F016F930323A5509
:100BD000641C50EA0102F7D12B46324621464046BA
:100BE000BDE8F04100F056B9000000002D00000003
:100BF0002B0000002000000030B4002100F124048C
:100C000008E002F00705D208303542EA4372DB08FB
:100C10006554491C52EA0305F3D10468002310A26D
:100C2000250707D5A40600D421B1C46901230DA26C
:100C3000641EC46130BC00F02DB910B504462146D5
:100C40001068FFF7A7FE02462046BDE810400023CB
:100C5000D2E7D21D22F00701D1E90023CCE7000042
:100C60000000000030000000F0B40D4601880905C6
:100C700002D5214C7C4402E01F4C7C440E34002100
:100C800000F1240608E002F00F071209E75D42EACE
:100C900003721B097754491C52EA0307F3D1027807
:100CA0000023120704D5702D06D009B10223113498
:100CB0002246F0BC00F0EEB801231034F8E770B51E
:100CC00004460D4621461068FFF764FE0246294699
:100CD0002046BDE870400023C6E7D21D22F007037E
:100CE000D3E90023C0E70368126843F020030360E0
:100CF0000823C3610023B7E7C45700003A2800D295
:100D0000303820F02002412A01D3A2F13700884276
:100D100001D34FF0FF30704702681144137801602F
:100D200018467047D16005497944516104497944B6
:100D3000116200211161114600F0A8BCEDFFFFFF18
:100D400051010000426842B1016811F8013B23B132
:100D5000521EC0E90012184670470121C160881E6A
:100D6000704742685AB1C368016843B983688B42CF
:100D700005D0491E521CC0E90012002070474FF0F8
:100D8000FF30704710B500F061FEBDE8104000F084
:100D900057BE10B5203AC0F00B80B1E81850203A89
:100DA000A0E81850B1E81850A0E81850BFF4F5AF0B
:100DB0005FEA027C24BFB1E81850A0E8185044BF95
:100DC00018C918C0BDE810405FEA827C24BF51F802
:100DD000043B40F8043B08BF7047D20728BF31F8F6
:100DE000023B48BF11F8012B28BF20F8023B48BF47
:100DF00000F8012B7047704730B5B0F10A024FEA96
:100E0000900E71F100034EEA817EB0EB0E0061EBB3
:100E100091014FEA101E4EEA017E10EB0E0041EBED
:100E200011114FEA102E4EEA016E10EB0E0041EB4D
:100E300011214FEA104E4EEA014E10EB0E0041EB2D
:100E40001141401841F100014FEAD00040EA4170E1
:100E50004FEAD10110EB80054FEA810444EA907417
:100E600044EB01046D1944EB0404521BA3414FF001
:100E7000000348BF0A3200D530BD401C41F10001DB
:100E800030BD10B5044600F023FE0068005D00F0A0
:100E9000010010BD2DE9F0470D46994692460446E3
:100EA00000F124080168880604D5E06921F01001EA
:100EB000216000E00120A84201DD471B00E000277F
:100EC000A1697A1902EB0900081AA0612078C0060E
:100ED00002D42046FFF72EFD002608E0D4E90121C8
:100EE0001AF806009047206A401C761C20624E4586
:100EF000F4DB2078C0060AD52046FFF71BFD06E08C
:100F0000D4E9012130209047206A401C2062381E1D
:100F1000A7F10107F4DC07E0D4E9012118F8050086
:100F20009047206A401C2062281EA5F10105F3DCD1
:100F30002046FFF715FD2078000602D50220BDE807
:100F4000F0870120FBE770472DE9FF4F0C461E4656
:100F50004FF0FF378BB0D2E90001DDF860800A90D6
:100F60008A46C1F30A5505B93D46002108464FF0AF
:100F70000000BAF1000F00F4400005DA00EB800039
:100F80004FF4400101EA50004FEA9059B9F1010FC6
:100F900000DDB9460A9850EA4A000ED044F61050D7
:100FA000A5F2FF3545432F14B8F1000F1ED075424E
:100FB000291E1EDDC9F100021CE0B8F1010F4FF03F
:100FC000000001D0302103E0F24305E02154401C31
:100FD000B042FBDB30460022002121540B99C1F8BE
:100FE0000880C1E900200FB0BDE8F08FBD1B6D1C6B
:100FF000DEE74A4600DA694206A800F0B5FD06AB16
:1010000093E8070003AB83E8070050460A9900F015
:1010100087FE8DE80700A0F500501F380090039868
:10102000002D0ADD42F21F014A460844002303A9AD
:101030000390684601F0F0F809E0A0F500504A4638
:101040001F38002303A90390684601F0FAF88DE8E1
:1010500007000004000C03D04FF0FF30410800E00F
:101060001046B8F1000F03D00022009215461EE092
:10107000751E05D4FFF7C0FE303262556D1EF9D5DE
:10108000B3460122084302D000227F1C04E02078EE
:10109000302801D100227F1E002A099784D01DE04C
:1010A000112D07DAFFF7A8FE303262556D1C50EAA9
:1010B0000102F5D1084302D00098C8B10EE000212A
:1010C000681E05E0235C625C63542254401E491C88
:1010D0008142F7DBAB46A81B401E0990002004F8B4
:1010E0000B000B98099AC0F80880C0E9002B7AE73A
:1010F00011264FF0000857E72DE9F04F88460446C7
:10110000D21D22F0070191B0D1E90001CDE90A0119
:1011100004F05FF902460B98C00F01D02D2007E0C4
:101120002068810701D52B2002E0202101EAC000C0
:10113000032A099001D0072A05DB034641462046D1
:1011400000F0D2FC0BE12078800601D5E06900E0D8
:101150000620B8F1650F814606D0B8F1660F18D0A9
:10116000B8F1670F70D131E00020B9F1110F009094
:1011700001DB112301E009F101030AAA01A90CA86E
:10118000FFF7E2FEDDE90C70002609F10105834658
:1011900047E001204B4600904FF000470AAA01A902
:1011A0000CA8FFF7D1FEDDE90DB00C995D460026D5
:1011B00010B909F101000D18B9EB050003D4C0F115
:1011C000FF3609F10105A5EB09002BE0B9F1010F8C
:1011D00001DA4FF001090020B9F1110F00904846E3
:1011E00001DD112300E003460AAA01A90CA8FFF7BC
:1011F000ABFEDDE90C704D460026834620780007E3
:101200000AD4AB4500DA5D4601A8012D04DD411981
:1012100011F8011C302907D04F4502DA17F1040FED
:1012200004DA012082460FE06D1EEEE7002F02DC9B
:10123000ED1B3E4403E0781CA84200DD7D1CB81B7A
:1012400000F1010A4FF000472078000703D4AA45B7
:1012500001DB4FF0FF3A0021B7F1004F0DF14308D9
:101260008DF8431024D002202B23002F01DA7F4277
:101270002D230A21021EA0F1010000DC5FB197FBC3
:10128000F1FC97FBF1F201FB1C7C17460CF1300CD2
:1012900008F801CDEEE7A8F10100037021880905E7
:1012A00001D5452100E06521A0F1010800F8011CED
:1012B00009980FA9A1EB0807FF1D00B101204119F2
:1012C00001EBEA70A1693844081A401EA061207839
:1012D000C00602D42046FFF72DFB099828B1D4E9B7
:1012E00001219047206A401C20622078C00622D548
:1012F0002046FFF71FFB1EE0002E04DBB34502DD96
:1013000001A8805D00E03020D4E901219047206AE7
:10131000401C2062761CAAF101005FEA000A0AD193
:1013200000F0DEFBC0680168405CD4E90121904711
:10133000206A401C2062281EA5F10105DCDC07E0C4
:10134000D4E9012118F8010B9047206A401C206263
:10135000381EA7F10107F3DC2046FFF701FB03204D
:1013600011B041E62DE9F04F04460D46D21D22F0A2
:10137000070089B0D0E900974846394604F029F8BB
:101380000246F80F01D02D2307E02068810701D520
:101390002B2302E0202101EAC0038DF820300BB19D
:1013A000012000E00020032A824601D0072A04DB46
:1013B0002946204600F098FB3FE12078800601D4C2
:1013C0000D2500E0E569C7F30A560D2D49DA002125
:1013D0004FEA175B08464FF00000002F00F4400072
:1013E00007DA00EB80004FF4400100EBD07001EA17
:1013F00060008115012901DD4FF0FF3100224FEA25
:10140000850CBCF1180F06D31346ACF118004FF051
:101410008052C24003E04FF4801323FA0CF30CF126
:101420000C0CBCF1200F04D3ACF1200C09FA0CF029
:1014300001E007FA0CF000294FF0004801DD18B96F
:101440000FE00ED140450CD319EB02095F4121B9E1
:10145000404502D19F4329EA0209BBEB175F00D048
:10146000761C2088000502D57B48784402E07A4843
:101470007844193808AA302302F80A30037C0AF1AC
:101480000101002E0AF1020A53546A4602DC4FF0B1
:10149000300101E04FF031014FF001088DF80010EC
:1014A00002D0A6F2FF3603E059EA470100D06B4EA6
:1014B000002D02DC2178090704D54FF002082E2107
:1014C0008DF80110C44600210BE0C7F303433F0130
:1014D000C35C491C6D1E02F80830052908F101089B
:1014E00001DA002DF1DC00210CE000EB1973491C3E
:1014F0001B786D1E082902F808304FEA091908F117
:10150000010801DA002DF0DC21688B0602D516E017
:10151000A8F10108E04505DD02EB080313F8013CE2
:10152000302BF5D0B8F1000F09DD02EB080313F8FA
:10153000013C2E2B03D1090701D4A8F10108002D8D
:1015400005DD3E2102F808106D1E08F10108407CFF
:10155000002E02F8080008F1010804DA2D20764276
:1015600002F8080002E02B2002F808000A214FF4DC
:101570007A70864208F101080BDB96FBF0F33033FA
:1015800002F8083096FBF0F308F1010800FB13663F
:1015900001E0642E0CDB642096FBF0F3303302F89C
:1015A000083096FBF0F308F1010800FB136601E038
:1015B0000A2E06DB96FBF1F0303002F8080008F145
:1015C000010896FBF1F001FB1060303002F80800D2
:1015D000A16908F1010808EB050202EB0A00081AEC
:1015E000A0612078C00602D42046FFF7A3F9216A43
:1015F00008AE01EB0A00206204E0D4E9012116F8EC
:10160000010B9047BAF1010AF7D22078C00602D543
:101610002046FFF78FF96E4609E016F8010B3E28C9
:101620000FD0D4E901219047206A401C2062B8F114
:101630000108F2D22046FFF793F909B00320BDE874
:10164000F08F206A2844206203E0D4E90121302091
:1016500090476D1EEBD3F8E70950000002FCFFFF36
:1016600010B5436913B1AFF3008001E0FFF728FA2A
:10167000012010BD128800F1240182840022C2845E
:101680000122EDE711684FF0FF32E9E72DE9F34F52
:101690004FF0000A0C4656468DB001200C9001F127
:1016A0000C000B9062690B9801219047051E2DD00C
:1016B000252D2CD0216A8847C0B162690B98012181
:1016C0009047216A88470028F7D16269411E0B982C
:1016D000904700E0761CA1690D988847216A8847E9
:1016E0000028F7D1E1690D988847DBE7A1690D98DB
:1016F0008847A842074601D1761CD3E7E1690D98D7
:1017000088477F1C02D1BAF1000F6FD06CE162698B
:101710000B9800273D46394690472A2804D1626934
:101720000B98012190470125DFF8D08262690B9860
:1017300001219047A0F130010A290AD24745E5DC92
:1017400007EB870100EB4107303FDFD445F0100580
:10175000ECE7E90601D46FF000476C280AD04C286A
:1017600014D0682815D06A280DD074281CD07A2887
:101770001AD01DE062690B98012190476C2802D0B5
:1017800045F0040514E045F002050DE045F02005A4
:101790000AE062690B9801219047682802D045F061
:1017A000080505E045F4006562690B980121904742
:1017B000C4E9015765283DD019DC58287AD00CDCE3
:1017C000452837D004DC252826D041289ED131E099
:1017D00046282FD0472899D12CE05B2877D0612864
:1017E00028D063287CD0642823D15AE0F7E06F2802
:1017F00048D008DC66281DD067281BD0692821D076
:101800006E2816D127E0702845D0732868D0752837
:1018100047D078280DD14DE0A1690D98884725283B
:1018200005463FF469AFE1690D9888476D1C3FF4A8
:101830006AAFD9E00D9923466A466FF00100AFF315
:101840000080C6E045F0400023464FF00002606093
:10185000A80736D43EE0E8077FF447AF2068011DB3
:1018600021600068290501D506701BE7290701D50D
:10187000068017E7A90703D5F117C0E9006111E752
:1018800006600FE745F0400023464FF00802606015
:10189000A80716D41EE040F60E0125EA010060609C
:1018A00016E045F0400023464FF00A026060A807AA
:1018B00007D40FE045F040006060A80708D5234634
:1018C00010220D996FF00100AFF3008081E007E076
:1018D000102223460D996FF00100FEF7B9FE78E063
:1018E0004FF0000963284F46C8464B46CB4602D00E
:1018F0005B2807D039E02079C00601D40120A06020
:10190000012732E06269D4F80CB00B9801219047AE
:101910005E2807D14FF0010949466269D4F80CB03E
:101920000B989047216939B900210A4603AB43F867
:101930002120491C0829FADBD8B3216949B308F1F1
:10194000010862690B98012190475D28F4D1B9F133
:10195000000F09D0002003A951F82020D24341F8FC
:101960002020401C0828F7DB03AB206900282079E1
:101970004FEA40701ED05B462246CDF80080CDE98C
:1019800001970D9900286FF0010020DAAFF3008075
:101990001FE0C11703AA00EBD1614B1121F01F0119
:1019A00002EB8302411A136801208840034313604D
:1019B000C7E719E00D99224600286FF00100009753
:1019C00002DAAFF3008004E0AFF3008001E0AFF390
:1019D000008000280ADA401C06D10C9820B14FF094
:1019E000FF300FB0BDE8F08F5046FAE7E90701D1AC
:1019F0000AF1010A064400200C9053E6CCCCCC0C32
:101A000070B516460C46054600F062F8036893F878
:101A10000101012806D0FF2C0FD8185D68B1012004
:101A20002C7070BDD3F807013246214603F207132C
:101A300003442846BDE8704018474FF0FF3070BDA2
:101A4000002801D0FEF770BF7047000010B50021DC
:101A500002A000F004F9012010BD000053494741E5
:101A60004252543A2041626E6F726D616C2074650F
:101A7000726D696E6174696F6E0000000048704796
:101A80008C0900207546FFF7F9FFAE460500694650
:101A9000534620F00700854618B020B5FEF728FC15
:101AA000BDE820404FF000064FF000074FF000085F
:101AB0004FF0000B21F00701AC46ACE8C009ACE8E0
:101AC000C009ACE8C009ACE8C0098D467047000009
:101AD00010B500F005F8001D10BD00BFF94700006B
:101AE00000487047AC0900202DE9F0411F4604462C
:101AF00003260168072A01F4006004DB08B116A57B
:101B000005E016A503E008B115A500E015A521F034
:101B100010002060A069C01EA0610FB1401EA0612E
:101B20002046FEF707FF4FB1D4E901213846904720
:101B3000206A401C2062C01C206206E0206AFAE78E
:101B4000D4E9012115F8010B9047761EF8D2204602
:101B5000FEF706FFBDE8F0814E414E006E616E005B
:101B6000494E4600696E66002DE9F04781461646EB
:101B70008AB0354878440DC88DE80D003248784465
:101B8000801C03AC0DC884E80D0041F69B3008446E
:101B9000372190FBF1F290FBF1F5A5F1800501FBF7
:101BA00012041B3C02D56442012000E00020DFF853
:101BB00098A080460027FA44AAF1BE0A0EE0E0078A
:101BC0000AD03246684607EB470101230AEB810140
:101BD00000F037FB8DE8070064107F1C002CEED16D
:101BE000194F7F44AE3F19E0E80715D007EB04100A
:101BF0000DF1180A90E80E008AE80E00C068F04265
:101C000001D1981908903246012306A903A800F0D3
:101C100018FB03AB83E807006D10641C002DE3D1B3
:101C20004FF0010332466946B8F1000F03A802D015
:101C300000F0F2FA01E000F004FBC9E90001C9F884
:101C400008200AB0BDE8F0879049000010B50446AE
:101C5000AFF300802046BDE81040FEF734BB70B5FE
:101C600005460C460A2000E06D1C00F011F835B165
:101C700028780028F8D102E0641C00F009F814B1BB
:101C800020780028F8D1BDE870400A20AFF300802A
:101C900008B569468DF800000320ABBE08BD000002
:101CA0004FF0013C50F8042B51F8043B9A4221D1EB
:101CB000A2EB0C03934313EACC1317D150F8042B77
:101CC00051F8043B9A4215D1A2EB0C03934313EA5B
:101CD000CC130BD150F8042B51F8043B9A4209D194
:101CE000A2EB0C03934313EACC13DBD04FF00000BC
:101CF000704700BFD01A01BAB1FA81F101F01801A2
:101D000022FA01F0CB40C1F12001DBB2C0B2C01A0F
:101D10002CFA01F3D11A914311EAC311E6D17047AD
:101D20005FEA400C08BF91F0000F4FEA8C234FEAA6
:101D3000C12243EA51514FEA1C5018BF00F5F04050
:101D40004FEA300018BF41F000415FEA6C5C00F0E0
:101D50002980BCF1FF3F08BF40F080407047130C62
:101D600006BF12044FF0100C4FF0000C130E04BF0E
:101D700012020CF1080C130F04BF12010CF1040C39
:101D8000930F04BF92000CF1020CD30F04BF52005A
:101D90000CF1010C11464FF00002A0F11F00A0EB66
:101DA0000C00704711F0004F08BF704731F0004140
:101DB0003FF4D5AF0B0C06BF09044FF0100C4FF0E9
:101DC000000C0B0E04BF09020CF1080C0B0F04BF32
:101DD00009010CF1040C8B0F04BF89000CF1020CFB
:101DE000CB0F04BF49000CF1010CCCF12003A0EB98
:101DF0000C0022FA03F302FA0CF241EA030100F1AB
:101E00000100704720F07F4C80EA030023F07F47F9
:101E1000ACEB070303F57C5300F0004003F1FF0334
:101E20002DE980494FEA154B09B44FEA144325EADE
:101E30000B4E24EA03480FF2042606EB1327490849
:101E40003E785FEA320203FB0667C7F5000707FB2F
:101E500006F64FEA54374FEAD64606F1020607FB6C
:101E6000066CCCF1005C4FEA1C472CEA074C07FBE0
:101E700006F40CFB06F504EB15464FEA961634BF44
:101E800000204FF000404FEAD13706FB07FC4FEA35
:101E90001C4C0CFB0BF7D21B03FB0CF761EB07018F
:101EA0000CFB0EF7B0EB074072EB17420CFB08F788
:101EB00034BFA2EB0742B2EB074261EB17414FEA96
:101EC0000C444FEA910706FB07FC4FEA1C4C0CFB45
:101ED0000BF7B0EBC74072EB573203FB0CF734BF84
:101EE000A2EBC742B2EBC74261EB57310CFB0EF7D6
:101EF000B0EBC70072EB57720CFB08F734BFA2EBD4
:101F0000C702B2EBC70261EB5771039F4FEA8161D1
:101F100041EA921104EBCC044FEAD1374FEA8262D6
:101F200006FB07FC42EA90124FEA80604FEA1C4C25
:101F30000CFB0BF7D21B03FB0CF761EB07010CFB4F
:101F40000EF7B0EB074072EB17420CFB08F734BFFB
:101F5000A2EB0742B2EB074261EB17414FEA8C5507
:101F60004FEA910704EB9C2406FB07FC4FEA1C4C4C
:101F70000CFB0BF7B0EBC74072EB573203FB0CF7CF
:101F800034BFA2EBC742B2EBC74261EB57310CFB47
:101F90000EF7B0EBC70072EB57720CFB08F734BFBB
:101FA000A2EBC702B2EBC70261EB577115EB4C25F0
:101FB0004FEA816141EA92114FEA82624FEAD137DA
:101FC00042EA901206FB07FC44F100044FEA8060ED
:101FD0004FEA1C4C0CFB0BF7D21B03FB0CF761EB1D
:101FE00007010CFB0EF7B0EB074072EB17420CFB3E
:101FF00008F734BFA2EB0742B2EB074261EB17418F
:1020000015EB1C154FEA813141EA92414FEA8232C9
:1020100042EA90424FEA80304FEA0C7644F10004E5
:1020200048EA03434EEA0B484FF0000EB2EB080CAF
:1020300071EB030724BF624639464EEB0E0E4FF09C
:10204000000B0018524149414BEB0B0BB2EB080C53
:1020500071EB03077BF1000B24BF624639464EEB60
:102060000E0E4FF0000B0018524149414BEB0B0B89
:10207000B2EB080C71EB03077BF1000B24BF624647
:1020800039464EEB0E0E51EA020718BF46F0010624
:1020900016EB0E7655F1000254F1000103D5BDE8B0
:1020A0008901BDE80088BDE88901BDE80048B6198E
:1020B000524141EB0101A3F10103704780807F7E13
:1020C0007D7C7B7A797877767675747372717170AE
:1020D0006F6E6E6D6C6C6B6A6A6968686766666560
:1020E0006464636362616160605F5F5E5E5D5D5CEE
:1020F0005C5B5B5A5A59595858575756565555555F
:102100005454535352525251515050504F4F4F4EBE
:102110004E4D4D4D4C4C4C4B4B4B4A4A4A4949490C
:10212000484848474747474646464545454444444E
:10213000444343434342424242414141002B9C4677
:1021400030D477002BD01CB54FEA370703B44FF0DB
:1021500010004FF01001BAF1000F06D0BCF1000FD3
:10216000DCBF40F0080040F008014FF000000FBC59
:10217000BDE810400BF1010BBBF1010F08BF5FEA96
:10218000170722BF12F1010211F101014FF00041C6
:1021900043F1000300F0004043EA00007047F9D328
:1021A0005708D0E746EA064613F1400F4FEA1646B5
:1021B0001FDD13F1200FDFBF16430A460021203335
:1021C0005B42BED0C3F1200746EA064602FA07F793
:1021D0004FEA164646EA0706C3F1200722FA03F241
:1021E00001FA07F721FA03F14FF0000342EA070270
:1021F000A7E746EA020646EA06464FEA164646EAD8
:102200000106BCBF46EA0646360C4FF000034FF00D
:1022100000024FF0000194E72DE9804C9A46934666
:1022200070B491E8380007C831EA400C48BF34EA7E
:10223000430C03D5FFF7E6FDFFF780FFF0BCBDE8D8
:10224000008C2DE9804C9A46934670B491E8380092
:1022500007C810F0804F08BF13F0804F03D100F083
:1022600005F8FFF76BFFF0BCBDE8008C20F07F475E
:1022700080EA030023F07F4C07EB0C03A3F57C53AB
:1022800000F00040A3F1FE0392F0000F00F0B380D5
:1022900095F0000F00F077802DE901494FEA1140D9
:1022A0004FEA144621EA004800FB06FC24EA0647F0
:1022B00008FB06F607FB08F800FB07F718EB0648D3
:1022C0004CEB164C4FEA124B18EB07484FEA1546F9
:1022D0004CEB174022EA0B4E0BFB06FC25EA0647A7
:1022E0000EFB06F607FB0EFE0BFB07F71EEB064E7A
:1022F0004CEB164C4FF000061EEB074E4CEB174B09
:1023000018EB0B0840F1000018EB0E0B58EB00081F
:1023100040F100008F1A4FF000013CBFC943661B1B
:1023200014BFB5EB040C00213CBFC943F61B4FEAB8
:1023300017444EEA8E0E27EA04454FEA1C4704FB79
:1023400007622CEA074C05FB07F70CFB05F604FBBC
:102350000CFC16EB074642EB174216EB0C4642EB21
:102360001C421BEB060658EB0202414146EA9E0660
:1023700001D5BDE80189B619524141EB0101A3F134
:102380000103BDE801894FEA14454FEA114724EAE9
:10239000054621EA074C05FB07F406FB07F70CFB93
:1023A00006F105FB0CFC11EB074144EB17444FEA27
:1023B000124711EB0C4144EB1C4422EA074C05FB8D
:1023C00007F206FB07F70CFB06F605FB0CFC16EB09
:1023D000074642EB174216EB0C4642EB1C456A18C7
:1023E00054F1000148BF7047B619524141EB010159
:1023F000A3F10103704795F0000F37D04FEA114267
:102400004FEA144721EA024624EA074C02FB07F18F
:1024100006FB07F70CFB06F402FB0CFC14EB07446D
:1024200041EB17414FEA154714EB0C4441EB1C41BB
:1024300025EA074C02FB07F506FB07F70CFB06F63F
:1024400002FB0CFC16EB074645EB174516EB0C465A
:1024500045EB1C42121951F1000148BF7047B619F3
:10246000524141EB0101A3F1010370474FEA1445CA
:102470004FEA114724EA054621EA074C05FB07F11C
:1024800006FB07F70CFB06F24FF0000605FB0CFC01
:1024900012EB074241EB174112EB0C4251EB1C418E
:1024A00048BF7047921841EB0101A3F10103704747
:1024B000FEE70000014800F0AFBA00006804002009
:1024C000014800F0A9BA0000C8040020014800F04B
:1024D000A3BA00002805002001681823CAB2103AE8
:1024E000B2FBF3F2054B6FF30901032A9B5CC36552
:1024F00000D9091D81650846704700000064000886
:1025000010B5014600208B698A6A4FF0C07453B140
:10251000B3F5005F15D072B1012A0CD0022A0AD09F
:10252000032A09D104E01AB1012A06D0022A03D1F4
:10253000C96AC90100D5012010BDC96AA142FAD0FB
:1025400010BD002AF7D0012AF2D0022AF3D0032AC4
:10255000F3D010BD30B50468256825F480252560CA
:10256000046863608368402B036803D09960006847
:10257000C26030BD9A600068C16030BD70471FB551
:10258000002400948DF80010F3218DF80110AB2188
:102590008DF8021001948DF804306B218DF8032022
:1025A0008DF80510029403944FF47A73062269465D
:1025B00001F0DEFE1FBD70B50E460500144602D0C8
:1025C0000CB1032E01D2002070BD60211046FEF731
:1025D00080F9287820706878607084F85C6000204A
:1025E00005E0295C2218401C82F83C10C0B2B042C1
:1025F00001D22028F5D3617801201F3929292AD258
:10260000DFE801F0152A31C7C734C7C73AC7C7C7C3
:10261000C7C7C7C7C7C740C77FC74F5C6EC77A7FEA
:10262000CCC78692989EA4AAB0B6BCC2CC00042E99
:102630001BD30021F61E06E06A1863189278491C25
:1026400083F82C20C9B2B14201DA0F29F4D3214416
:10265000002281F82C209CE0062E06D3698849BA16
:102660002183A98805E0082E05D294E0042E4AD3E0
:10267000698849BAE1828CE0042E44D3698849BA5A
:10268000218386E0062E3ED369882A7949BA090457
:1026900041EA02216A79114321617AE0A978217324
:1026A00077E0052E77D3A978A170B5F8032052BA48
:1026B00012B2A280F9B15142A1806AE0072E6AD31A
:1026C000AA78A270B5F803106B7949BA090441EAF7
:1026D0000321AB79194389B2A16062B1494209E093
:1026E000072E58D369882A7949BA090441EA022198
:1026F0006A791143A1604CE0032E4CD3A978617331
:1027000047E0032ECAD246E0A97884F82B1040E0B7
:10271000062E40D369882A7949BA090441EA022180
:102720006A791143E16134E0042E34D3698849BAEF
:1027300021842EE0032E2ED3A97884F8221028E0DD
:10274000032E28D3A97884F8231022E0032E22D365
:10275000A97884F824101CE0032E1CD3A97884F8EF
:10276000251016E0042E16D3698849BAE18410E0DA
:10277000032E10D3A97884F828100AE0032E0AD378
:10278000A97884F8291004E0032E04D3A97884F8EA
:102790002A1084F85D0094F85D0070BD032EB3D25A
:1027A000F9E71FB5002300938DF800100193029301
:1027B000039301216B46112A31D2DFE802F0090BA5
:1027C000101230143016181A1C1E30202429220032
:1027D0001F2100E020218DF8011002211FE021219E
:1027E000F9E72421F7E72721F5E73121F3E7332142
:1027F000F1E73521EFE73621EDE73721EBE73A2125
:10280000E9E73B21E7E742218DF801106C2103E065
:1028100043218DF801107A218DF8021003216B22DB
:102820005A544A1C4FF47A73694601F0A1FD1FBD4A
:102830001FB5002200928DF800100A218DF80110BA
:102840006D218DF802106B210192029203928DF896
:1028500003104FF47A730422694601F089FD1FBD0D
:102860001FB5002300938DF80010FE218DF8011094
:1028700098218DF8021001936B21029303938DF838
:1028800003208DF804104FF47A730522694601F095
:102890006FFD1FBD7FB500260C46DDE908150196CA
:1028A0000096029603968DF80040F6268DF80430C7
:1028B0008DF801608DF802208DF805101A0A8DF848
:1028C00006506B218DF803208DF807104FF47A73B2
:1028D0000822694601F04CFD020004D00CA1154805
:1028E00002F048FE7FBD224613A1124802F042FECC
:1028F00000246D4616A12A5D0E4802F03BFE641CC2
:10290000082CF7DB14A10B4802F034FE7FBD000059
:1029100055415254205472616E736D697420466142
:10292000696C656421204572726F723A2025640DCE
:102930000A0000004803002053656E7420436D6454
:1029400020746F20416464722025643A20000000E6
:1029500030782530325820000D0A000072B6FEE7AC
:102960002DE9F0410446876D00F0C6FA064694F85A
:1029700035000025022806D08020606584F8345098
:102980000120BDE8F0812068016821F01601016096
:102990002068416921F080014161206C08B9A06C78
:1029A00020B12068016821F00801016020680168F9
:1029B00021F0010101600CE000F09EFA801B052867
:1029C00007D920206065032084F8350084F834504E
:1029D000D7E720680068C007EED194F85C103F206C
:1029E0008840B860012084F8350084F83450002015
:1029F000C7E790F83510022903D0802141650120F6
:102A00007047052180F835100068016821F0010148
:102A100001600020704700002DE9F84304464FF0A4
:102A20000009CDF8009063484FF41651A56D006879
:102A3000B0FBF1F72E6894F85C10082000FA01F161
:102A400031420FD021680A6852070BD50A6822F07C
:102A500004020A6094F85C108840A860606D40F041
:102A60000100606594F85C104FF0010808FA01F06D
:102A7000304208D021684969090604D5A860606D14
:102A800040F00200606594F85C10042088403042F9
:102A900008D021680968890704D5A860606D40F0F6
:102AA0000400606594F85C1010208840304218D013
:102AB00021680968090714D5A860206801684903DE
:102AC00004D50068000308D5A16C07E00168C905BA
:102AD00003D4016821F008010160216C09B120468E
:102AE000884794F85C1020208840304231D021681B
:102AF0000968C9062DD5A86094F835000528206816
:102B0000016806D0490347D5006800031DD4616CF5
:102B10001CE021F0160101602068416921F080016C
:102B20004161206C08B9A06C20B12068016821F0D7
:102B30000801016094F85C103F208840A86084F888
:102B4000358084F83490216D1FE0E16B09B1204697
:102B50008847606D00282BD0606DC00714D0052019
:102B600084F835002068016821F0010101600098B7
:102B7000401C0090B84203D820680068C007F6D116
:102B800084F8358084F83490E16C002910D001B0CD
:102B90002046BDE8F04308470168C905D5D401685F
:102BA00021F01001016084F8358084F83490CCE77E
:102BB000BDE8F8830C0000202DE9F041044600F048
:102BC0009BF906465CB1022084F83500002584F8A4
:102BD00034502068016821F0010101600DE00120FE
:102BE000BDE8F08100F088F9801B052805D9202078
:102BF0006065032084F83500F2E720680068C007AC
:102C0000F0D12268116820480140D4E9010318433B
:102C1000D4E903363343184363691843A36918435F
:102C2000E3691843236A18430843616A042903D1FE
:102C3000D4E90B1319430843106020684069666AA1
:102C400020F0070130460E43012704280CD1A06A6A
:102C50000643E06A40B12046FFF752FC20B1402015
:102C6000606584F83570BAE7206846612046FFF752
:102C700033FC94F85C203F2191408160656584F8C5
:102C800035700020ACE700003F8010F02DE9F041E6
:102C90000446866D90F83400002501280DD00120EF
:102CA00084F8340094F835700020012F07D084F8A0
:102CB000340002252846BDE8F0810220FBE7022708
:102CC00084F8357060652046FFF744FC94F85C108A
:102CD0003F208840B0602068016841F01601016023
:102CE000206C20B12068016841F008010160206873
:102CF000016841F001010160DCE700002DE9F84FB7
:102D0000DFF8BCA10022012503264FF00F090AF1CC
:102D1000040BAAF1040E00BF0B6805FA02F423406D
:102D2000A34270D10F7907F00307012F01D0022FC2
:102D300016D187684FEA420806FA08FC27EA0C0712
:102D4000D1F80CC00CFA08FC4CEA070CC0F808C01B
:102D50004768A7430C79C4F3001494403C43446093
:102D60000C79E443A4070AD0C4684FEA420C06FA7F
:102D70000CF7BC438F6807FA0CF72743C7600C7940
:102D800004F00304022C12D1D40800EB840CDCF80C
:102D900020405707FF0E09FA07F824EA0804D1F883
:102DA000108008FA07F848EA0408CCF82080046884
:102DB0004FEA420C06FA0CF7BC430F7907F0030701
:102DC00007FA0CF7274307604C6814F4403F70D0B3
:102DD0003C4C276847F480472760246822F00307AB
:102DE00004F480440094384C07EB040CDCF80848E9
:102DF00097074FEA177809FA08F7BC43334FB842F0
:102E000002D1002724E054E0314FB84201D101271C
:102E10001EE0304FB84201D1022719E02E4FB842D0
:102E200001D1032714E02D4FB84201D104270FE050
:102E30002B4FB84201D105270AE02A4FB84201D1F1
:102E4000062705E0284FB84201D1072700E00827F0
:102E500007FA08F72743CCF80878DAF80040574615
:102E6000D1F804C09C435FEACC2C00D51C433C60E5
:102E7000DBF800405F46D1F804C09C435FEA8C2C2D
:102E800000D51C433C60DEF800407746D1F804C012
:102E90009C435FEA8C3C00D51C433C60084F083FD4
:102EA0003C68D1F804C09C435FEACC3C00D51C438D
:102EB0003C60521C102AFFF42FAFBDE8F88F0000D1
:102EC000083C01404438024000300140000002400C
:102ED0000004024000080240000C024000100240C2
:102EE0000014024000180240001C02400AB1816137
:102EF00070470904FBE70000014880687047000044
:102F00000000002070B5040025D094F83D00002595
:102F100020B984F83C50204600F0B8F8242084F80A
:102F20003D002068016821F001010160206801680E
:102F300041F4004101602068016821F40041016012
:102F400000F02EFA4D4A6168914201D84C4900E0E8
:102F50004C49884201D2012070BD4B492368B0FB27
:102F6000F1F15E6826F03F060E435E6063689342AF
:102F700006D94FF4967359434FF47A73B1FBF3F1CA
:102F80002368491C1E6A26F03F06314319626168B6
:102F9000914210D84900401EB0FBF1F2521CC2F31E
:102FA0000B02042A01D2042022E0B0FBF1F0401C05
:102FB000C0F30B001CE0A268F2B301EBC10303EB0A
:102FC0000116431EB3FBF6F35B1C43F480431B0561
:102FD00049D092B301EBC10202EB0111401EB0FBDC
:102FE000F1F0401CC0F30B0040F4804040F400407E
:102FF0002168CA694CF6FF739A431043C861D4E94B
:10300000071001432068026822F0C00211430160EA
:10301000D4E9030101432068826848F2FF339A43F0
:1030200011438160D4E9050108432168CA6822F090
:10303000FF021043C86001E00EE016E0206801685E
:1030400041F0010101602564202084F83D002563E2
:1030500084F83E50002070BD01EB4106431EB3FBD7
:10306000F6F35B1CB3E70120C2E701EB4101401E10
:10307000B0FBF1F0401CC0F30B00B7E7A0860100E5
:1030800080841E0000093D0040420F00F0B587B06B
:10309000044614216846FDF71CFC2768234CDFF822
:1030A00088C0002221491223032504262048103419
:1030B000674518D10F6847F002070F60096802AF33
:1030C00001F002010591C021CDE9001387E86400F9
:1030D0006946FFF713FE206840F400102060206866
:1030E00000F400101CE0DFF84CC0674519D10F68F0
:1030F00047F002070F60096802AF01F00201059175
:103100004FF44061CDE9001387E864006946FFF79A
:10311000F5FD206840F480002060206800F4800005
:10312000059007B0F0BD0000005400403038024068
:1031300000040240005800400248816802781144AF
:1031400081607047000000200B4810B5016841F411
:1031500000710160016841F480610160016841F41F
:1031600080710160032000F06FF8002000F006F885
:1031700000F024F8002010BD003C024070B50D4D59
:1031800004464FF47A712878B1FBF0F00A490968D7
:10319000B1FBF0F000F00CFB48B9102C07D2002274
:1031A0002146501E00F030F800206C6070BD0120F8
:1031B00070BD0000000000200C0000200A4808B587
:1031C000016841F480410160006800F48040009093
:1031D0000548001F016841F080510160006800F05F
:1031E0008050009008BD000044380240002809DBF0
:1031F00000F01F02012191404009800000F1E02011
:10320000C0F8001170470000F0B40E4B1B680C466C
:10321000C3F30223C3F10705042D00D90425191DAA
:10322000072901D2002300E0DB1E012606FA05F182
:10323000491E214099409E40761E16403143F0BC05
:1032400002F0DFB80CED00E0064900F00702086864
:103250004FF6FF03184040EA0220034A104308607B
:10326000704700000CED00E00000FA052DE9F04782
:103270000E46050065D0DFF81481D8F80000F7B2DB
:1032800000F00700B04207D288F80070D8F80000BC
:1032900000F00700B04254D128683D4C810712D598
:1032A000400703D5206840F4E050206028780007EC
:1032B00003D5206840F4604020602068A96820F0B1
:1032C000F000084320602878C0072DD03049686896
:1032D0000839012812D0022813D0032811D0096818
:1032E000890700292DDA216821F0030101432160BB
:1032F000FFF702FE814641F2883A0EE00968890331
:10330000EFE709688901ECE7FFF7F6FDA0EB09019B
:10331000514502D90320BDE8F0872068696800F0B4
:103320000C00B0EB810FEFD1D8F80010404601F04F
:103330000701B14207D90770006800F00700B042EA
:1033400001D00120E7E72878400705D52068E96823
:1033500020F4E050084320602878000706D5206854
:10336000296920F4604040EAC100206000F038F88C
:103370002168084AC1F30311515CC840064908603E
:1033800006480068FFF7FAFE0020C4E7003C024050
:1033900008380240086400080C00002004000020E7
:1033A0000448054900680968044AC1F38221515C58
:1033B000C84070470C00002008380240186400081C
:1033C0000448054900680968044AC1F34231515C68
:1033D000C84070470C0000200838024018640008FC
:1033E000154810B5006810F00C02144813D01449A9
:1033F000042A0FD0082A0ED10F4C241F22682368FC
:1034000002F03F025B0207D52068C0F38810A0FBE2
:10341000010106E0084610BD2168C1F38811A1FB37
:1034200000010023FCF776FF2168C1F30141491C2C
:103430004900B0FBF1F010BD083802400024F40050
:1034400040787D012DE9F84F04006ED02078DFF838
:103450004C93C007A9F104054AD009F104000168A2
:10346000C1F38101012908D00068C0F3810002285E
:103470000AD1D9F80000400206D52868800337D564
:1034800060680028E1D033E06068B0F5803F10D07C
:10349000B0F5A02F286810D020F48030286028686C
:1034A00020F4802028606068A8B1FFF725FD06465B
:1034B0000DE0286840F48030F4E740F48020286074
:1034C000F7E700BFFFF718FD801B642873D8286852
:1034D0008003F7D50CE0FFF70FFD064605E000BFBF
:1034E000FFF70AFD801B6428F0D828688003F7D412
:1034F0002078DFF8AC8280074FF0000A3ED5A7485D
:10350000001D016811F00C0F08D00068C0F38100A5
:1035100002280BD1D9F80000400207D428688007A0
:1035200016D5E068012800D112E033E1E068B8B1B7
:103530000120C8F80000FFF7DFFC064605E000BFE9
:10354000FFF7DAFC801B0228C0D828688007F7D56F
:103550002868216920F0F80040EAC10028600DE0E9
:10356000C8F800A0FFF7C8FC064604E0FFF7C4FC5B
:10357000801B02281FD828688007F7D4207800070E
:1035800022D5864F87486169703771B1012101608A
:10359000FFF7B2FC064604E0FFF7AEFC801B0228F2
:1035A00009D838688007F7D50EE0C0F800A0FFF70B
:1035B000A3FC064605E082E0FFF79EFC801B022884
:1035C0007DD838688007F7D42078400768D5DFF8C1
:1035D000CCB100270BF13C0BDBF80000C0000BD492
:1035E000DBF8001041F08051CBF80010DBF8000050
:1035F000012700F0805000906B4E3068C00510D459
:10360000306840F480703060FFF776FC009005E091
:10361000FFF772FC0099401A022850D83068C005A4
:10362000F6D55E4EA0686C3601280FD005283068AC
:1036300010D020F001003060306820F004003060CD
:10364000A068B8B1FFF758FC00900FE0306840F078
:103650000100F4E740F004003060F7E7FFF74CFCAE
:103660000099411A41F28830814266D8306880075B
:10367000F4D50EE0FFF740FC009007E0FFF73CFCBC
:103680000099411A41F28830814256D8306880074B
:10369000F4D42FB1DBF8001021F08051CBF80010EA
:1036A000A069C8B33D49091D0968C1F38101022918
:1036B0004AD00228504607D0C8F8600000E03CE03D
:1036C000FFF71AFC04463BE04746C8F86000FFF7E6
:1036D00013FC064605E000BFFFF70EFC801B022826
:1036E0002BD828688001F7D4D4E907010843A16AE0
:1036F0002E4A490802EB0141626A41EA82110843FD
:1037000094F82C1040EA0161C9F8001001203866D5
:10371000FFF7F2FB044606E03EE000BFFFF7ECFBDC
:10372000001B022809D828688001F7D534E000BFC3
:10373000FFF7E2FB001B022802D90320BDE8F88F47
:1037400028688001F4D427E00128F7D0D9F80000D8
:10375000E26900F4800191421CD1226A00F03F012D
:10376000914217D147F6C071626A0140B1EB821FE6
:1037700010D1A26A4FF0FF3300F4403103EB520244
:10378000B1EB024F06D194F82C1000F07060B0EB52
:10379000016F01D00120D1E70020CFE704380240BB
:1037A00000004742800E4742007000400000FFFFCB
:1037B00010B5401EB0F1807F01D3012010BD4FF045
:1037C000E02460610F21601701F01BFE0020A06162
:1037D00007202061002010BD10B590F83C20012A80
:1037E00022D0012280F83C20CA688C6822F4407202
:1037F00022434C6822F4806222430C6822F4006267
:1038000022430C6922F4805222434C6922F4005274
:103810002243C969002322F480420A4301684A64B2
:1038200080F83C30002010BD022010BD70B590F82B
:103830003C20012A32D0012480F83C40022280F84A
:103840003D2003685A689D6822F070060A6832437A
:103850005A60134B02689A4214D0B2F1804F11D0D3
:10386000104B9A420ED0104B9A420BD00F4B9A42FB
:1038700008D00F4B9A4205D00E4B9A4202D00E4B05
:103880009A4204D1496825F080031943916080F879
:103890003D40002180F83C10084670BD022070BDFC
:1038A000000001400004004000080040000C0040FF
:1038B00000040140004001400018004010B5040021
:1038C00003D094F83D0010B107E0012010BD0020A6
:1038D00084F83C00204600F01FF8022084F83D00E8
:1038E000211D206801F0A2F9012084F8460084F827
:1038F0003E0084F83F0084F8400084F8410084F8DA
:10390000420084F8430084F8440084F8450084F8B9
:103910003D00002010BD000008B50068064988423F
:1039200008D10648016841F001010160006800F01B
:103930000100009008BD0000000001404438024032
:1039400070B5044690F83C000025012817D00126E8
:1039500084F83C60022084F83D002068826822F0F0
:10396000770222F47F4282600868502838D00DDC4C
:1039700020284FD005DC90B3102811D14AE0022056
:1039800070BD302846D040280AD13BE060282FD0B7
:1039900070280DD0B0F5805F03D0B0F5005F12D075
:1039A000012584F83D60002084F83C00284670BD65
:1039B000CB68D1E90121206801F0A0F92068816875
:1039C00041F0770109E0CB68D1E90121206801F0DD
:1039D00095F92068816841F480418160E1E719E050
:1039E000CA684968206801F05DFA5021206806E045
:1039F000CA684968206801F066FA6021206801F011
:103A000087F9CEE7CA684968206801F04BFA40217F
:103A10002068F4E7226801461046F0E72DE9F041FE
:103A20000D46040003D094F83D0018B108E00120D1
:103A3000BDE8F081002084F83C00204600F040F80A
:103A4000022084F83D002068816844F20702914317
:103A50008160211D206801F0E9F822689068916971
:103A6000166A2B68AF69034340F20330814341EA91
:103A70000721A868EF6908434FF6FC418843E968CD
:103A800040EA0720014328692F6A000140EA073015
:103A9000084369686D6926F0AA0646EA05152943B8
:103AA00093602268906154F8460B0162012004F88B
:103AB0001F09E0752076E0762077A0750020B7E733
:103AC00030B587B0044614216846FCF702FF214850
:103AD00024681F4D00221F4910380223AC4216D122
:103AE0000C6844F002040C60096801F002010591C1
:103AF000016841F0020101600068694600F00200BF
:103B0000059030200090CDE90132134819E0134DA3
:103B1000AC421AD10C6844F004040C60096801F04E
:103B200004010591016841F00801016000686946DF
:103B300000F0080005904FF440500090CDE90132AC
:103B40000748CDE90323FFF7D9F807B030BD0000DF
:103B500000040040403802400004024000080040D9
:103B6000000C024010B586B0044614216846FCF7EC
:103B7000B0FE0E492068884216D10D480021026827
:103B800042F010020260006800F0100005904FF44F
:103B9000904000900220CDE901010120CDE9031001
:103BA00069460448FFF7AAF806B010BD00000140BE
:103BB000303802400010024070B5044690F83C00D6
:103BC00000260D4601280FD0012084F83C006AB180
:103BD000042A1DD0082A2FD00C2A3FD0012600200D
:103BE00084F83C00304670BD022070BD206801F0B2
:103BF00097F82068816941F0080181612068816936
:103C000021F004018161206881692A69114311E072
:103C1000206801F0B5F82068816941F40061816194
:103C20002068816921F480618161206881692A6945
:103C300041EA02218161D2E7206801F0D7F82068CB
:103C4000C16941F00801C1612068C16921F0040126
:103C5000C1612068C1692A69114311E0206801F03F
:103C6000F9F82068C16941F40061C1612068C16947
:103C700021F48061C1612068C1692A6941EA022199
:103C8000C161ACE710B5040003D094F83D0010B159
:103C900007E0012010BD002084F83C00204600F021
:103CA0001EF8022084F83D00211D206800F0BEFFB0
:103CB000012084F8460084F83E0084F83F0084F830
:103CC000400084F8410084F8420084F8430084F8FE
:103CD000440084F8450084F83D00002010BD704782
:103CE00038B5044690F84200202801D0022038BDA3
:103CF00051B14AB10120206300206063204601F0E9
:103D0000A5FA216B012901D0012038BD21680A687C
:103D10004968009121680C3151E8002F42F01002EF
:103D200041E80023002BF5D138BD000070B50D46E9
:103D3000044600681649884208D12A4615491648A3
:103D400002F034F940211348FCF7C3FD1349206801
:103D500088420AD10F492A464031114802F026F91B
:103D60000C4840214030FCF7B4FD0E4920688842E1
:103D70000CD108492A4680310B4802F017F9BDE8FA
:103D80007040044840218030FCF7A3BD70BD0000A6
:103D900000440040F801002088050020004C00404D
:103DA0009405002000140140A00500207047000089
:103DB000F8B5016804460868CA684B6910F00F0F2F
:103DC0004FF0000559D003F0010602F49077374315
:103DD00065D0C10705D0D10503D5616C41F0010163
:103DE0006164410705D5D90703D0616C41F0020138
:103DF0006164810705D5D90703D0616C41F00401E6
:103E00006164010707D502F02001314303D0616CE2
:103E100041F008016164616C00293AD0800604D544
:103E2000900602D5204601F02AF920684069616CAD
:103E3000C0F38010090700D460B3204601F0EAF80F
:103E400020684069400621D52068143050E8001FE2
:103E500021F0400140E80012002AF5D1E06BA8B142
:103E600072490165E06BFEF7C4FD002811D0E06BDC
:103E7000016D01B0BDE8F040084783060FD59306F9
:103E80000DD52046BDE8F84001F0F9B82046FFF70F
:103E90008DFFF8BD2046FFF789FF6564F8BD266BEE
:103EA0002023012E7ED1C6067CD5D6067AD5086899
:103EB0004868009048694FF0020640064DD5E26B15
:103EC000106840684FF480770004000C3AD0A18D50
:103ED000814237D9E085D069B8422DD020680C30B6
:103EE00050E8001F21F4807140E80012002AF5D14B
:103EF0002068143050E8001F21F0010140E8001252
:103F0000002AF5D12068143050E8001F21F040014C
:103F100040E80012002AF5D184F842302563206879
:103F20000C3050E8001F21F0100140E80012002A78
:103F3000F5D1E06BFEF714FD6663A08DE18D401AAC
:103F400081B206E0A18D8142A8D1D069B842A5D145
:103F500066632046FFF7EAFEF8BDA08DE18D401AAA
:103F600081B2E08D0028F7D00029F5D020680C3010
:103F700050E8002F22F4907240E80027002FF5D17E
:103F80002068143050E8002F22F0010240E800279A
:103F9000002FF5D184F84230256320680C3050E8BA
:103FA000002F00E006E022F0100240E80023002B82
:103FB000F3D1CDE705062BD5150629D594F8410098
:103FC0002128C9D1A068B0F5805F01D12069B0B1C6
:103FD000206A411C2162216800784860E08C401E04
:103FE0000004000CE084B7D12068C16821F0800192
:103FF000C1602068C16841F04001C160F8BD206A1D
:104000000088C0F308004860206A801C2062E5E751
:104010004006F3D55006F1D5CA68204622F040028A
:10402000CA6084F8413000F0F3F9F8BD194F000878
:1040300070B5040004D094F84100002510B106E0EA
:10404000012070BD84F84050204600F023F8242061
:1040500084F841002068C16821F40051C160204605
:1040600001F06EF82068016921F490410161206837
:10407000416921F02A0141612068C16841F4005181
:10408000C1606564202084F8410084F842006563C3
:10409000002070BD2DE9F04F87B006461421684618
:1040A000FCF717FCA548A44B32680024A34910383C
:1040B00003250227DFF888A24FF008084FF4806933
:1040C0009A4234D10A6842F400220A60096801F475
:1040D00000210591016841F0010101600068CDE90E
:1040E000005700F00100CDE9048069465046CDE953
:1040F0000245FEF703FE944D924828604005C5E94D
:104100000104C5E903496C61AC61EC612C6228468D
:104110006C62FEF751FD08B1FEF720FCF56300224A
:1041200011463420AE63FFF76FF8342060E0874B10
:10413000DFF81CE29A422ED10A6842F480120A602B
:10414000096801F480110591016841F004010160E2
:10415000016801F004010591016841F00801016066
:10416000006802AA00F0080005909814CDE9000745
:1041700082E8300169467046FEF7C0FD0420CDE9B3
:10418000000702AA694682E830017248FEF7B6FDD0
:1041900007B0BDE8F08FDFF8C0C1DFF8A0B107239A
:1041A0000BF1040B624526D1DBF8002042F010022F
:1041B000CBF80020DBF8001001F010010591016838
:1041C00041F0010101600068029400F001000590D7
:1041D0004FF4C060CDE90007CDE90353694650466E
:1041E000FEF78CFD002211462520FFF70DF8252053
:1041F000FEF7FCFFCCE7DFF864C1624538D10A68FE
:1042000042F400320A60096801F400310591016846
:1042100041F0010101600068029400F00100059086
:104220000C20CDE90007CDE9035369465046FEF75F
:1042300065FD454D43486035483028604FF00060CB
:10424000C5E90104C5E903496C61AC61EC612C620C
:1042500028466C62FEF7B0FC08B1FEF77FFBF56301
:10426000002211462620AE63FEF7CEFF2620BFE7D0
:10427000DFF8ECC0624521D10A6842F480220A606E
:10428000096801F480210591016841F0080101608D
:104290000068029400F0080005904FF44070CDE9EA
:1042A0000007CDE9035369462A48FEF727FD00229F
:1042B00011462720FEF7A8FF272099E729498A42BF
:1042C00098D1DBF8002042F02002CBF80020DBF888
:1042D000001001F020010591016841F00401016026
:1042E000006802AA00F004000590C020CDE9000794
:1042F00082E8300169467046FEF700FD124D1A480B
:10430000C03528608005C5E90104C5E903496C6131
:10431000AC61EC612C6228466C62FEF74DFC08B182
:10432000FEF71CFBF563002211464720AE63FEF743
:104330006BFF47205CE70000004C00404038024023
:10434000000002404060024068040020005000402D
:1043500000080240000C02400010014000440040F0
:104360000048004000140140286402407047704734
:104370002DE9F843044690F84100984616460D464C
:10438000202802D00220BDE8F88385B17EB100204C
:104390006064212084F84100FEF7AEFDA6848146CA
:1043A000E684A0682027B0F5805F02D003E00120FA
:1043B000E9E7206910B12E4600250EE000260CE04A
:1043C0008021204600F092FFA8B9C6B116F8010B73
:1043D00021684860E08C401EE084E08C4B464FF042
:1043E0000002CDF800800028EAD14FF040012046BD
:1043F00000F07CFF40B184F841700320C3E735F83A
:10440000020BC0F30800E3E784F841700020BAE72C
:104410007047FEE7154808B5016841F400110160D6
:10442000016801F400110091016841F4800101600C
:104430000068002200F48000009011460D20FEF775
:10444000E3FE0D20FEF7D2FE002211461020FEF7FB
:10445000DBFE1020FEF7CAFE002211463920FEF7CF
:10446000D3FEBDE808403920FEF7C0BE3038024018
:104470002DE9F04F87B014216846FCF72AFA3F482F
:104480000025016841F010010160016801F0100190
:104490000591016841F080010160016801F080012F
:1044A0000591016841F001010160016801F001011D
:1044B0000591016841F002010160016801F002010B
:1044C0000591016841F008010160016801F00801EF
:1044D0000591016841F0040101600068DFF8A0A0C7
:1044E00000F004004FF45856059000223146504623
:1044F000FEF7FCFCDFF88CB04FF440670122394630
:104500005846FEF7F3FC4FF44078012241461E481E
:10451000FEF7ECFC4FF4C059012249461B48FEF758
:10452000E5FC0F20CDE900050124694602945046C0
:10453000FEF7E4FB0096CDE9014569465046039538
:10454000FEF7DCFB0320CDE90250CDE9007469469B
:104550005846FEF7D3FBCDE9008469460A48CDE909
:104560000245FEF7CBFBCDE9009469460748CDE94B
:104570000245FEF7C3FB07B0BDE8F08F30380240BC
:1045800000100240000C02400008024000000240FF
:104590000D4810B50B4901600C49416000214FF4F2
:1045A00080428160C0E9031241618161C1610162A1
:1045B000FEF7A8FC002803D0BDE81040FEF7CEB9F6
:1045C00010BD00000054004078000020801A060052
:1045D0000D4810B50B4901600C49416000214FF4B2
:1045E00080428160C0E9031241618161C161016261
:1045F000FEF788FC002803D0BDE81040FEF7AEB9F6
:1046000010BD000000580040CC000020801A0600B9
:1046100010B596B000240F94109411941294139432
:104620001C2168461494FCF754F9202107A8FCF7D4
:1046300050F92C482A4901602721C0E9011463215F
:10464000C0E9031444618461FFF738F908B1FEF74B
:1046500085F94FF480500F900FA92248FFF770F9A9
:1046600008B1FEF77BF91F48FFF70CFB08B1FEF716
:1046700075F9139413A91B481494FFF7D7F808B1E0
:10468000FEF76CF96020CDE90004029403940494D1
:1046900005940422694613480694FFF78DFA08B181
:1046A000FEF75CF90C2269460E48FFF785FA08B15F
:1046B000FEF754F90794089409944FF400500A94B3
:1046C000CDE90B4007A907480E94FFF785F808B11C
:1046D000FEF744F90348FFF745FA16B010BD000095
:1046E000000001402001002010B58CB02421684654
:1046F000FCF7EFF800241648099414490A94C0E91D
:1047000000144FF6FF71C0E9024104618461032087
:10471000CDE900040120CDE902040494CDE905406F
:10472000079469460A480894FFF778F908B1FEF73C
:1047300015F9099409A906480A94FFF777F80028A3
:1047400001D0FEF70BF90CB010BD000000040040D2
:104750006801002010B58CB024216846FCF7B9F838
:1047600000241648099414490A94C0E900144FF62D
:10477000FF71C0E90241046184610320CDE90004B6
:104780000120CDE902040494CDE90540079469466F
:104790000A480894FFF742F908B1FEF7DFF80994D8
:1047A00009A906480A94FFF741F8002801D0FEF74E
:1047B000D5F80CB010BD000000080040B00100208A
:1047C000114810B50F4901604FF4E13141600021FB
:1047D00081600C22C160C0E904128161C161FFF7F0
:1047E00027FC08B1FEF7BAF807494022803906488D
:1047F000FFF776FA05480068016821F008010160BA
:1048000010BD0000004C0040B802002068040020E9
:104810000C4810B50A4901604FF4E13141600021B4
:1048200081600C22C160C0E904128161C161FFF79F
:10483000FFFB002803D0BDE81040FEF78FB810BD85
:1048400000500040000300200C4810B50A490160E8
:104850004FF4E1314160002181600C22C160C0E968
:1048600004128161C161FFF7E3FB002803D0BDE8BA
:104870001040FEF773B810BD00100140480300203F
:10488000104810B50E4901604FF4E131416000213C
:1048900081600C22C160C0E904128161C161FFF72F
:1048A000C7FB08B1FEF75AF8402207490548FFF751
:1048B00017FA06480068016821F00801016010BD80
:1048C0000044004090030020F8010020C8040020AC
:1048D0000C4810B50A4901604FF4E13141600021F4
:1048E00081600C22C160C0E904128161C161FFF7DF
:1048F0009FFB002803D0BDE81040FEF72FB810BD85
:1049000000480040D8030020104810B50E4901604F
:104910004FF4E1314160002181600C22C160C0E9A7
:1049200004128161C161FFF783FB08B1FEF716F83D
:10493000402207490548FFF7D3F906480068016897
:1049400021F00801016010BD001401402004002086
:104950007802002028050020FEE7FEE710B50322BC
:104960002DED028B01239FED2B8ADFED2B8A114663
:10497000B0EE481AF0EE480AB0EE680A274800F098
:1049800055F826480322B0EE481AF0EE480AB0EE79
:10499000680A01231146503000F048F8DFED208A04
:1049A0001E48B0EE481AF0EE680AB6EE000A32234E
:1049B000C8220421A03000F039F81848B0EE481A97
:1049C000F0EE680AB6EE000A3223C8220421F03065
:1049D00000F02CF8DFED138AB0EE481AF0EE480A2A
:1049E000B0EE680A0023282203210F4800F01EF8C9
:1049F000B0EE481AF0EE480AB0EE680ABDEC028B41
:104A00000023094828220321BDE81040503000F05F
:104A10000DB80000000000000AD7A33CAC0700203E
:104A2000CDCC4C3ECDCCCC3DEC08002010B504469E
:104A30002DED048BB0EE418AF0EE608A0A48A06446
:104A40000A48E064B0EE409A204601F02DFAE16C8D
:104A5000B0EE481AF0EE680AB0EE490ABDEC048BDD
:104A60002046BDE810400847A95E0008B95E00086E
:104A70007047704710B50122002311460648FDF724
:104A80007EFD0122002311460448FDF778FDBDE8B4
:104A9000104000F067B8000090030020B80200202A
:104AA0007CB510EE101A2B482B4AB0EE081AF8EE1F
:104AB000081A814202DDB0EE410A05E010EE101A3C
:104AC000914201D9B0EE610A10EE901A814202DDE6
:104AD000F0EE410A05E010EE900A904201D9F0EEA6
:104AE000610AB5EEC00AF1EE10FA01DB002202E025
:104AF0000122B1EE400AF5EEC00AF1EE10FA01DB38
:104B0000002502E00125F1EE600AB6EE001AF2EE91
:104B1000041AB0EE412A00EEA11A00EE212A002468
:104B2000009401210194BCEEC20A10EE100ABCEE02
:104B3000C10A83B210EE100A86B20848FDF7AAFE39
:104B4000009433462A46012105480194FDF7A2FE50
:104B50007CBD000000004040000040C090030020E9
:104B6000B802002010B5002201210548FDF778FEAB
:104B70000022BDE8104001210248FDF771BE00008F
:104B800090030020B8020020FEF7D6BA30B593B0EB
:104B900030216846FBF79DFE14210CA8FBF799FE17
:104BA0001C480024016841F080510160006800F059
:104BB000805011901848016841F4804101600068FC
:104BC000022500F4804011900120039010200490F1
:104BD000009506950820CDE907405020CDE909054C
:104BE00004200B906846FEF72DFC08B172B6FEE774
:104BF0000F20CDE90C054FF48050CDE90E40022185
:104C00000CA81094FEF732FB002801D072B6FEE724
:104C100013B030BD403802400070004002480168C7
:104C200041F470010160704788ED00E0F0B5026862
:104C3000274B284D284E294F294C4FF0804C984245
:104C400009D0604507D0A84205D0B04203D0B84291
:104C500001D0A04204D122F0700E4A6842EA0E024E
:104C600098421BD0604519D0A84217D0B04215D049
:104C7000B84213D0A04211D01A4DA8420ED01A4DFE
:104C8000A8420BD0194DA84208D0194DA84205D012
:104C9000184DA84202D0184DA84203D122F4407505
:104CA000CA682A434D6922F080022A438D68C56292
:104CB0000D688562984201D0A04201D10969016363
:104CC000016841F004010160012141610260F0BD11
:104CD000000001400004004000080040000C0040BB
:104CE00000040140004001400044014000480140F0
:104CF00000180040001C00400020004010B58468EF
:104D000042EA032224F47F440A432243826010BD16
:104D1000826822F070020A4342F007018160704706
:104D2000F0B5036A026A22F00102026242688469F5
:104D3000124E24F073050C682C4323F002058B6897
:104D40002B430D4DA84201D0B04205D123F00807F6
:104D5000CB683B4323F00403A84201D0B04205D105
:104D60004D6922F4407215438A692A434260846186
:104D7000496841630362F0BD000001400004014046
:104D8000F0B5026A036A23F0100303624368846982
:104D90000D6824F4E64444EA05248D6822F02002DC
:104DA00042EA05120F4D104EA84201D0B04206D182
:104DB000CF6822F0800242EA071222F04002A842A5
:104DC00001D0B04207D14D6923F4406343EA850323
:104DD0008D6943EA850343608461496881630262A7
:104DE000F0BD00000000014000040140F0B5026A7F
:104DF000036A23F4807303624368C46922F4007277
:104E000024F073050C68124E2C438D6842EA05228B
:104E10000E4DA84201D0B04206D1CF6822F4006204
:104E200042EA072222F48062A84201D0B04207D1B0
:104E30004D6923F4405343EA05138D6943EA051392
:104E40004360C4614968C1630262F0BD0000014073
:104E50000004014030B5046A026A22F48052026202
:104E60004268C3690D6823F4E64343EA05238D686D
:104E700024F4005444EA0534084DA84202D0084DF9
:104E8000A84204D14D6922F4804242EA8512426070
:104E9000C36149680164046230BD00000000014044
:104EA0000004014010B5036A046A24F0010404629E
:104EB000846924F0F00444EA021423F00A020A434D
:104EC0008461026210BD10B5036A046A24F0100404
:104ED0000462846923F0A00324F4704444EA02329B
:104EE00043EA01118261016210BD000010B507485C
:104EF000FEF75EFF402206490448FEF7F1FE054832
:104F00000068016821F00801016010BDB8020020AE
:104F1000380200206804002010B5806B0021C18594
:104F2000FEF744FF10BD70B5846B2068406994F8AB
:104F30004110C0F3C0100025212904D118B1E58427
:104F4000204600F08EF82068406994F84210C0F3C3
:104F50008010222904D118B1E585204600F05AF8C6
:104F6000606C40F0100060642046FEF71FFF70BDCB
:104F700010B50146806B096809684FF00002C90549
:104F80002ED4C28501680C3151E8003F23F48073B0
:104F900041E80034002CF5D10168143151E8003F9C
:104FA00023F0010341E80034002CF5D101681431ED
:104FB00051E8003F23F0400341E80034002CF5D1D4
:104FC000202180F84210016B012909D101680C31C0
:104FD00051E8003F23F0100341E80034002CF5D1E4
:104FE0004263016B012902D0FFF7C0F910BD818D2A
:104FF000FEF79CFE10BD10B5806B01214163016B73
:10500000012902D0FFF7B3F910BD818D4908FEF7E1
:105010008DFE10BD01680C3151E8002F22F4907212
:1050200041E80023002BF5D10168143151E8002F2D
:1050300022F0010241E80023002BF5D1016B012988
:1050400009D101680C3151E8002F22F0100241E82B
:105050000023002BF5D1202180F8421000210163AC
:10506000704701680C3151E8002F22F0C00241E87E
:105070000023002BF5D1202180F84110704708B59E
:1050800090F84210222901D0022008BD82684FF416
:1050900080539A4201D1016921B1816A9A421BD0A1
:1050A0004AB10AE00268816A5268C2F308020A80C3
:1050B000816A891C08E0026972B10268526802F0D4
:1050C0007F020A70816A491C8162C18D491E0904F0
:1050D000090CC18503D01BE002685268F1E7016842
:1050E000CA6822F02002CA600168CA6822F480728D
:1050F000CA6001684A6922F001024A61202180F8F1
:10510000421000214163026B012A03D0FFF72EF900
:10511000002008BD016301680C3151E8002F22F026
:10512000100241E80023002BF5D101680A68D2067D
:1051300002D50A6849680091818DFEF7F7FDE7E71F
:1051400070B5044600680169E26821F440511143DA
:1051500001612169A068E26908436169114308435C
:105160002168CA6849F20C639A430243CA60206806
:105170004169A26921F440711143416131492068BC
:10518000884202D03049884202D1FEF719F901E085
:10519000FEF706F9E2690023192164253226B2F5EB
:1051A000004F626828D0A0FB0101930F9200FBF72B
:1051B000B1F80146B0FBF5F06FF01802504301EB77
:1051C000800006EB0010B0FBF5F000F0F002B1FB40
:1051D000F5F002EB0012B1FBF5F06FF01803584345
:1051E00001EB800006EB0010B0FBF5F000F00F00C3
:1051F00021681044886070BDA0FB010192185B41DA
:10520000FBF788F80146B0FBF5F00201B1FBF5F0C1
:105210006FF01803584301EB800006EBC000B0FBB1
:10522000F5F000F0F80002EB4002B1FBF5F0584356
:1052300001EB800006EBC000B0FBF5F000F00700CA
:10524000D6E70000001001400014014038B581622B
:1052500004468285002013466064222284F842209E
:10526000E56B1F4AEA63E56B1E4A2A64E56B1E4A3A
:10527000EA64E26B10650A462168E06B091DFDF7E0
:1052800005FD30B110206064202084F84200012028
:1052900038BD2068016840680090206948B12068E6
:1052A0000C3050E8001F41F4807140E80012002AE1
:1052B000F5D12068143050E8001F41F0010140E8AA
:1052C0000012002AF5D12068143050E8001F41F088
:1052D000400140E80012002AF5D1002038BD00004E
:1052E000714F0008F74F0008274F00082DE9F843D9
:1052F000984617460D460446089E24E0701C22D0AE
:10530000FDF7FAFDA0EB0800B0421AD8CEB1206834
:10531000C168490717D5802D15D0402D13D00168DD
:10532000C94309070FD40168002540680090204652
:10533000FFF770FE0820606484F840500120BDE84B
:10534000F8830320FBE72068006835EA000004D0FA
:105350000020B842D2D00020F1E70120F9E7000098
:105360000148FEF725BD00004803002010B507489E
:10537000FEF71EFD402206490448FEF7B1FC054831
:105380000068016821F00801016010BD9003002051
:10539000F8010020C80400200148FEF709BD000004
:1053A000D803002010B50748FEF702FD4022064949
:1053B0000448FEF795FC05480068016821F00801E3
:1053C000016010BD20040020780200202805002084
:1053D000FEE703B401984100009850EAC12018BFCD
:1053E00004204A0D18BF40F0010040F2FF72B2EBFA
:1053F000515F08BF40F00200012808BF052002B03D
:1054000070470907090E002804DB00F1E02080F84E
:105410000014704700F00F0000F1E02080F8141D28
:10542000704730380A2801D20120704700207047A9
:10543000D0ED000AF4EEC00AF1EE10FA01DD80EDC5
:10544000000AD0ED000AB1EE400AF4EEC00AF1EE17
:1054500010FA01D280ED000A7047000089B200EE18
:10546000101ADFED070A0028B8EE400A20EE200AE5
:10547000DFED040A20EE200A01D0B1EE400A7047A9
:105480000000B4430000803789B292B2914201D348
:10549000891A02E0C2F580321144B1F5004F01DDF6
:1054A000A1F5803100EE101ADFED070A0028B8EEF2
:1054B000C00A20EE200ADFED050A20EE200A01D006
:1054C000B1EE400A704700000000B443000080378E
:1054D000FDF73AFEFFF75AFBFEF7CAFFFEF79AFF09
:1054E000FFF756F8FFF774F8FFF792F8FFF7FCF8AC
:1054F000FFF730F9FFF78CF9FFF7A6F9FFF7C0F9CE
:10550000FFF7E6F9FFF700FAFFF75AF900F0C4FDDC
:10551000FFF724FA40220F490F4800F02FFD4022E8
:105520000E490F4800F02AFD40220E490E4800F0B7
:1055300025FDFFF79FFA01210C48FDF779F90121BC
:105540000B48FDF775F900F07DFD00BF00F0AAFDE6
:10555000FCE700002C07002094050020EC0600204A
:10556000880500206C070020A0050020B80200205C
:10557000900300200FB44FF4007130B5ADF5017DFC
:10558000054686AB6846859AFAF73CFF044682B228
:105590004FF0FF3369462846FEF7EAFE0DF5017D20
:1055A000204630BC5DF814FB2DE9FF4143780446EA
:1055B000332B65D006DC1F2B50D0242B53D0272B48
:1055C00006D154E0352B06D0362B09D03B2B71D0B9
:1055D000027847A14EE0B4F9043002784FA149E0C7
:1055E000A078A168FFF73AFF554F012587ED030A20
:1055F000F87848B1A078A1687A69FFF745FF87ED90
:10560000070AF87960B117E0A2687A61FD709FED32
:105610004D0A4DA187ED070A5448FFF7ABFFF0E7AD
:10562000387948B1A2687A62A0787871FD7150A18A
:105630004E48BB6AFFF79EFFF86900F067FE05461B
:105640000E46F86800F062FE8DE86300227850494B
:105650004648A368FFF78EFFBDE8FF81227804F17A
:105660002C034CA106E0E38A027852A102E0238BCE
:10567000027858A104B03D48BDE8F041FFF77ABF79
:10568000237B22785BA13948FFF774FF207BC0079A
:1056900003D060A13548FFF76DFF207B800703D55D
:1056A00061A13248FFF766FF207B4007D4D563A194
:1056B00011E0FFE794F82B30227865A12B48FFF723
:1056C00059FF94F82B0060B101280CD002280CD0AF
:1056D0000328C1D167A104B02448BDE8F041FFF719
:1056E00049BF68A1F7E76DA1F5E770A1F3E70000F6
:1056F00058D6E1B5E7BBFAB5D8D6B73A256420B994
:10570000A6C4DCC2EB3A30782530325820D2D1BD65
:10571000D3CAD5CEB4B4A6C0ED0D0A0058D6E1B5B3
:10572000E7BBFAB5D8D6B73A256420CAB5CAB1D70F
:10573000AACBD93A25642052504D0D0A0000000032
:105740002C0000200000000058D6E1B5E7BBFAB2FB
:10575000CEBFBCCEBBD6C3D2D1B3F5CABCBBAF3A69
:1057600020256C6420C2F6B3E50D0A004803002032
:10577000B3F5CABCCEBBD6C3D2D1B1A3B4E63A20EE
:10578000583D256C6420593D256C640D0A000000CD
:105790002065000858D6E1B5E7BBFAB5D8D6B73AC8
:1057A000256420B9CCBCFEB0E6B1BE3A25730D0A23
:1057B0000000000058D6E1B5E7BBFAB5D8D6B73A35
:1057C000256420D7DCCFDFB5E7D1B93A2564205670
:1057D0000D0A000058D6E1B5E7BBFAB5D8D6B73AFE
:1057E000256420CFE0B5E7C1F73A2564206D410D6F
:1057F0000A00000058D6E1B5E7BBFAB5D8D6B73AEB
:10580000256420D7B4CCACD6B53A307825303258A0
:105810000D0A0000202058D6E1B5E7BBFAD2D1CA64
:10582000B9C4DC0D0A000000202058D6E1B5E7BB62
:10583000FAD2D1B5BDCEBB0D0A000000202058D64B
:10584000E1B5E7BBFAB6C2D7AAB1A3BBA40D0A0063
:1058500058D6E1B5E7BBFAB5D8D6B73A256420BB30
:10586000D8C1E3D7B4CCAC3A3078253032580D0AE1
:1058700000000000202058D6E1BBD8C1E3CAA7B081
:10588000DC0D0A00202058D6E1CEB4B4A6D3DABB92
:10589000D8C1E3D7B4CCAC0D0A000000202058D604
:1058A000E1D5FDD4DABBD8C1E30D0A00202058D6DB
:1058B000E1BBD8C1E3CDEAB3C90D0A002DE9FF4130
:1058C00043780446332B65D006DC1F2B50D0242BA5
:1058D00053D0272B06D154E0352B06D0362B09D0D8
:1058E0003B2B71D0027847A14EE0B4F90430027826
:1058F0004FA149E0A078A168FFF7B0FD554F012501
:1059000087ED040A387948B1A078A168BA69FFF731
:10591000BBFD87ED080AF87960B117E0A268BA61AB
:105920003D719FED4D0A4DA187ED080A5448FFF7E0
:1059300021FEF0E7F87848B1A368BB62A078B8719F
:10594000FD7150A14E487A6AFFF714FE386A00F0E4
:10595000DDFC05460E46386900F0D8FC8DE8630092
:10596000227850494648A368FFF704FEBDE8FF814E
:10597000227804F12C034CA106E0E38A027852A1BC
:1059800002E0238B027858A104B03D48BDE8F04105
:10599000FFF7F0BD237B22785BA13948FFF7EAFDD2
:1059A000207BC00703D060A13548FFF7E3FD207BD3
:1059B000800703D561A13248FFF7DCFD207B40075B
:1059C000D4D563A111E0FFE794F82B30227865A1CC
:1059D0002B48FFF7CFFD94F82B0060B101280CD0C5
:1059E00002280CD00328C1D167A104B02448BDE827
:1059F000F041FFF7BFBD68A1F7E76DA1F5E770A122
:105A0000F3E7000059D6E1B5E7BBFAB5D8D6B73A07
:105A1000256420B9A6C4DCC2EB3A30782530325870
:105A200020D2D1BDD3CAD5CEB4B4A6C0ED0D0A00E4
:105A300059D6E1B5E7BBFAB5D8D6B73A256420CA3E
:105A4000B5CAB1D7AACBD93A25642052504D0D0A18
:105A5000000000002C0000200000000059D6E1B535
:105A6000E7BBFAB2CEBFBCCEBBD6C3D2D1B3F5CA68
:105A7000BCBBAF3A20256C6420C2F6B3E50D0A002A
:105A800048030020B3F5CABCCEBBD6C3D2D1B1A364
:105A9000B4E63A20583D256C6420593D256C640DD0
:105AA0000A0000006465000859D6E1B5E7BBFAB505
:105AB000D8D6B73A256420B9CCBCFEB0E6B1BE3A20
:105AC00025730D0A0000000059D6E1B5E7BBFAB511
:105AD000D8D6B73A256420D7DCCFDFB5E7D1B93ABD
